{
  "contractName": "NFTMarketplace",
  "abi": [
    {
      "inputs": [],
      "stateMutability": "nonpayable",
      "type": "constructor"
    },
    {
      "anonymous": false,
      "inputs": [
        {
          "indexed": true,
          "internalType": "address",
          "name": "owner",
          "type": "address"
        },
        {
          "indexed": true,
          "internalType": "address",
          "name": "approved",
          "type": "address"
        },
        {
          "indexed": true,
          "internalType": "uint256",
          "name": "tokenId",
          "type": "uint256"
        }
      ],
      "name": "Approval",
      "type": "event"
    },
    {
      "anonymous": false,
      "inputs": [
        {
          "indexed": true,
          "internalType": "address",
          "name": "owner",
          "type": "address"
        },
        {
          "indexed": true,
          "internalType": "address",
          "name": "operator",
          "type": "address"
        },
        {
          "indexed": false,
          "internalType": "bool",
          "name": "approved",
          "type": "bool"
        }
      ],
      "name": "ApprovalForAll",
      "type": "event"
    },
    {
      "anonymous": false,
      "inputs": [
        {
          "indexed": true,
          "internalType": "uint256",
          "name": "tokenId",
          "type": "uint256"
        },
        {
          "indexed": false,
          "internalType": "address",
          "name": "seller",
          "type": "address"
        },
        {
          "indexed": false,
          "internalType": "address",
          "name": "owner",
          "type": "address"
        },
        {
          "indexed": false,
          "internalType": "uint256",
          "name": "price",
          "type": "uint256"
        },
        {
          "indexed": false,
          "internalType": "bool",
          "name": "sold",
          "type": "bool"
        }
      ],
      "name": "MarketItemCreated",
      "type": "event"
    },
    {
      "anonymous": false,
      "inputs": [
        {
          "indexed": true,
          "internalType": "address",
          "name": "from",
          "type": "address"
        },
        {
          "indexed": true,
          "internalType": "address",
          "name": "to",
          "type": "address"
        },
        {
          "indexed": true,
          "internalType": "uint256",
          "name": "tokenId",
          "type": "uint256"
        }
      ],
      "name": "Transfer",
      "type": "event"
    },
    {
      "inputs": [
        {
          "internalType": "address",
          "name": "to",
          "type": "address"
        },
        {
          "internalType": "uint256",
          "name": "tokenId",
          "type": "uint256"
        }
      ],
      "name": "approve",
      "outputs": [],
      "stateMutability": "nonpayable",
      "type": "function"
    },
    {
      "inputs": [
        {
          "internalType": "address",
          "name": "owner",
          "type": "address"
        }
      ],
      "name": "balanceOf",
      "outputs": [
        {
          "internalType": "uint256",
          "name": "",
          "type": "uint256"
        }
      ],
      "stateMutability": "view",
      "type": "function",
      "constant": true
    },
    {
      "inputs": [
        {
          "internalType": "uint256",
          "name": "tokenId",
          "type": "uint256"
        }
      ],
      "name": "getApproved",
      "outputs": [
        {
          "internalType": "address",
          "name": "",
          "type": "address"
        }
      ],
      "stateMutability": "view",
      "type": "function",
      "constant": true
    },
    {
      "inputs": [
        {
          "internalType": "address",
          "name": "owner",
          "type": "address"
        },
        {
          "internalType": "address",
          "name": "operator",
          "type": "address"
        }
      ],
      "name": "isApprovedForAll",
      "outputs": [
        {
          "internalType": "bool",
          "name": "",
          "type": "bool"
        }
      ],
      "stateMutability": "view",
      "type": "function",
      "constant": true
    },
    {
      "inputs": [],
      "name": "name",
      "outputs": [
        {
          "internalType": "string",
          "name": "",
          "type": "string"
        }
      ],
      "stateMutability": "view",
      "type": "function",
      "constant": true
    },
    {
      "inputs": [
        {
          "internalType": "uint256",
          "name": "tokenId",
          "type": "uint256"
        }
      ],
      "name": "ownerOf",
      "outputs": [
        {
          "internalType": "address",
          "name": "",
          "type": "address"
        }
      ],
      "stateMutability": "view",
      "type": "function",
      "constant": true
    },
    {
      "inputs": [
        {
          "internalType": "address",
          "name": "from",
          "type": "address"
        },
        {
          "internalType": "address",
          "name": "to",
          "type": "address"
        },
        {
          "internalType": "uint256",
          "name": "tokenId",
          "type": "uint256"
        }
      ],
      "name": "safeTransferFrom",
      "outputs": [],
      "stateMutability": "nonpayable",
      "type": "function"
    },
    {
      "inputs": [
        {
          "internalType": "address",
          "name": "from",
          "type": "address"
        },
        {
          "internalType": "address",
          "name": "to",
          "type": "address"
        },
        {
          "internalType": "uint256",
          "name": "tokenId",
          "type": "uint256"
        },
        {
          "internalType": "bytes",
          "name": "_data",
          "type": "bytes"
        }
      ],
      "name": "safeTransferFrom",
      "outputs": [],
      "stateMutability": "nonpayable",
      "type": "function"
    },
    {
      "inputs": [
        {
          "internalType": "address",
          "name": "operator",
          "type": "address"
        },
        {
          "internalType": "bool",
          "name": "approved",
          "type": "bool"
        }
      ],
      "name": "setApprovalForAll",
      "outputs": [],
      "stateMutability": "nonpayable",
      "type": "function"
    },
    {
      "inputs": [
        {
          "internalType": "bytes4",
          "name": "interfaceId",
          "type": "bytes4"
        }
      ],
      "name": "supportsInterface",
      "outputs": [
        {
          "internalType": "bool",
          "name": "",
          "type": "bool"
        }
      ],
      "stateMutability": "view",
      "type": "function",
      "constant": true
    },
    {
      "inputs": [],
      "name": "symbol",
      "outputs": [
        {
          "internalType": "string",
          "name": "",
          "type": "string"
        }
      ],
      "stateMutability": "view",
      "type": "function",
      "constant": true
    },
    {
      "inputs": [
        {
          "internalType": "uint256",
          "name": "tokenId",
          "type": "uint256"
        }
      ],
      "name": "tokenURI",
      "outputs": [
        {
          "internalType": "string",
          "name": "",
          "type": "string"
        }
      ],
      "stateMutability": "view",
      "type": "function",
      "constant": true
    },
    {
      "inputs": [
        {
          "internalType": "address",
          "name": "from",
          "type": "address"
        },
        {
          "internalType": "address",
          "name": "to",
          "type": "address"
        },
        {
          "internalType": "uint256",
          "name": "tokenId",
          "type": "uint256"
        }
      ],
      "name": "transferFrom",
      "outputs": [],
      "stateMutability": "nonpayable",
      "type": "function"
    },
    {
      "inputs": [
        {
          "internalType": "uint256",
          "name": "_listingPrice",
          "type": "uint256"
        }
      ],
      "name": "updateListingPrice",
      "outputs": [],
      "stateMutability": "payable",
      "type": "function",
      "payable": true
    },
    {
      "inputs": [],
      "name": "getListingPrice",
      "outputs": [
        {
          "internalType": "uint256",
          "name": "",
          "type": "uint256"
        }
      ],
      "stateMutability": "view",
      "type": "function",
      "constant": true
    },
    {
      "inputs": [
        {
          "internalType": "string",
          "name": "tokenURI",
          "type": "string"
        },
        {
          "internalType": "uint256",
          "name": "price",
          "type": "uint256"
        }
      ],
      "name": "createToken",
      "outputs": [
        {
          "internalType": "uint256",
          "name": "",
          "type": "uint256"
        }
      ],
      "stateMutability": "payable",
      "type": "function",
      "payable": true
    },
    {
      "inputs": [
        {
          "internalType": "uint256",
          "name": "tokenId",
          "type": "uint256"
        },
        {
          "internalType": "uint256",
          "name": "price",
          "type": "uint256"
        }
      ],
      "name": "resellToken",
      "outputs": [],
      "stateMutability": "payable",
      "type": "function",
      "payable": true
    },
    {
      "inputs": [
        {
          "internalType": "uint256",
          "name": "tokenId",
          "type": "uint256"
        }
      ],
      "name": "createMarketSale",
      "outputs": [],
      "stateMutability": "payable",
      "type": "function",
      "payable": true
    },
    {
      "inputs": [],
      "name": "fetchMarketItems",
      "outputs": [
        {
          "components": [
            {
              "internalType": "uint256",
              "name": "tokenId",
              "type": "uint256"
            },
            {
              "internalType": "address payable",
              "name": "seller",
              "type": "address"
            },
            {
              "internalType": "address payable",
              "name": "owner",
              "type": "address"
            },
            {
              "internalType": "uint256",
              "name": "price",
              "type": "uint256"
            },
            {
              "internalType": "bool",
              "name": "sold",
              "type": "bool"
            }
          ],
          "internalType": "struct NFTMarketplace.MarketItem[]",
          "name": "",
          "type": "tuple[]"
        }
      ],
      "stateMutability": "view",
      "type": "function",
      "constant": true
    },
    {
      "inputs": [],
      "name": "fetchMyNFTs",
      "outputs": [
        {
          "components": [
            {
              "internalType": "uint256",
              "name": "tokenId",
              "type": "uint256"
            },
            {
              "internalType": "address payable",
              "name": "seller",
              "type": "address"
            },
            {
              "internalType": "address payable",
              "name": "owner",
              "type": "address"
            },
            {
              "internalType": "uint256",
              "name": "price",
              "type": "uint256"
            },
            {
              "internalType": "bool",
              "name": "sold",
              "type": "bool"
            }
          ],
          "internalType": "struct NFTMarketplace.MarketItem[]",
          "name": "",
          "type": "tuple[]"
        }
      ],
      "stateMutability": "view",
      "type": "function",
      "constant": true
    },
    {
      "inputs": [],
      "name": "fetchItemsListed",
      "outputs": [
        {
          "components": [
            {
              "internalType": "uint256",
              "name": "tokenId",
              "type": "uint256"
            },
            {
              "internalType": "address payable",
              "name": "seller",
              "type": "address"
            },
            {
              "internalType": "address payable",
              "name": "owner",
              "type": "address"
            },
            {
              "internalType": "uint256",
              "name": "price",
              "type": "uint256"
            },
            {
              "internalType": "bool",
              "name": "sold",
              "type": "bool"
            }
          ],
          "internalType": "struct NFTMarketplace.MarketItem[]",
          "name": "",
          "type": "tuple[]"
        }
      ],
      "stateMutability": "view",
      "type": "function",
      "constant": true
    }
  ],
  "bytecode": "0x60806040526658d15e176280006009553480156200001c57600080fd5b506040518060400160405280601081526020017f4d657461766572736520546f6b656e73000000000000000000000000000000008152506040518060400160405280600281526020017f50520000000000000000000000000000000000000000000000000000000000008152508160009080519060200190620000a192919062000104565b508060019080519060200190620000ba92919062000104565b50505033600a60006101000a81548173ffffffffffffffffffffffffffffffffffffffff021916908373ffffffffffffffffffffffffffffffffffffffff16021790555062000219565b8280546200011290620001b4565b90600052602060002090601f01602090048101928262000136576000855562000182565b82601f106200015157805160ff191683800117855562000182565b8280016001018555821562000182579182015b828111156200018157825182559160200191906001019062000164565b5b50905062000191919062000195565b5090565b5b80821115620001b057600081600090555060010162000196565b5090565b60006002820490506001821680620001cd57607f821691505b60208210811415620001e457620001e3620001ea565b5b50919050565b7f4e487b7100000000000000000000000000000000000000000000000000000000600052602260045260246000fd5b61436280620002296000396000f3fe60806040526004361061012a5760003560e01c80636352211e116100ab578063ae677aa31161006f578063ae677aa3146103f9578063b88d4fde14610415578063be9af5361461043e578063c87b56dd1461045a578063e219fc7514610497578063e985e9c5146104b35761012a565b80636352211e146102fb57806370a082311461033857806372b3b6201461037557806395d89b41146103a5578063a22cb465146103d05761012a565b806312e85585116100f257806312e8558514610228578063202e37401461025357806323b872dd1461027e57806342842e0e146102a757806345f8fa80146102d05761012a565b806301ffc9a71461012f57806306fdde031461016c578063081812fc14610197578063095ea7b3146101d45780630f08efe0146101fd575b600080fd5b34801561013b57600080fd5b5061015660048036038101906101519190612ea2565b6104f0565b604051610163919061357c565b60405180910390f35b34801561017857600080fd5b506101816105d2565b60405161018e9190613597565b60405180910390f35b3480156101a357600080fd5b506101be60048036038101906101b99190612f48565b610664565b6040516101cb91906134ae565b60405180910390f35b3480156101e057600080fd5b506101fb60048036038101906101f69190612e66565b6106e9565b005b34801561020957600080fd5b50610212610801565b60405161021f919061355a565b60405180910390f35b34801561023457600080fd5b5061023d610ab6565b60405161024a9190613879565b60405180910390f35b34801561025f57600080fd5b50610268610ac0565b604051610275919061355a565b60405180910390f35b34801561028a57600080fd5b506102a560048036038101906102a09190612d60565b610dfa565b005b3480156102b357600080fd5b506102ce60048036038101906102c99190612d60565b610e5a565b005b3480156102dc57600080fd5b506102e5610e7a565b6040516102f2919061355a565b60405180910390f35b34801561030757600080fd5b50610322600480360381019061031d9190612f48565b6111b4565b60405161032f91906134ae565b60405180910390f35b34801561034457600080fd5b5061035f600480360381019061035a9190612cfb565b611266565b60405161036c9190613879565b60405180910390f35b61038f600480360381019061038a9190612ef4565b61131e565b60405161039c9190613879565b60405180910390f35b3480156103b157600080fd5b506103ba611360565b6040516103c79190613597565b60405180910390f35b3480156103dc57600080fd5b506103f760048036038101906103f29190612e2a565b6113f2565b005b610413600480360381019061040e9190612f48565b611408565b005b34801561042157600080fd5b5061043c60048036038101906104379190612daf565b6114a2565b005b61045860048036038101906104539190612f48565b611504565b005b34801561046657600080fd5b50610481600480360381019061047c9190612f48565b611742565b60405161048e9190613597565b60405180910390f35b6104b160048036038101906104ac9190612f71565b611894565b005b3480156104bf57600080fd5b506104da60048036038101906104d59190612d24565b611a89565b6040516104e7919061357c565b60405180910390f35b60007f80ac58cd000000000000000000000000000000000000000000000000000000007bffffffffffffffffffffffffffffffffffffffffffffffffffffffff1916827bffffffffffffffffffffffffffffffffffffffffffffffffffffffff191614806105bb57507f5b5e139f000000000000000000000000000000000000000000000000000000007bffffffffffffffffffffffffffffffffffffffffffffffffffffffff1916827bffffffffffffffffffffffffffffffffffffffffffffffffffffffff1916145b806105cb57506105ca82611b1d565b5b9050919050565b6060600080546105e190613b1a565b80601f016020809104026020016040519081016040528092919081815260200182805461060d90613b1a565b801561065a5780601f1061062f5761010080835404028352916020019161065a565b820191906000526020600020905b81548152906001019060200180831161063d57829003601f168201915b5050505050905090565b600061066f82611b87565b6106ae576040517f08c379a00000000000000000000000000000000000000000000000000000000081526004016106a590613799565b60405180910390fd5b6004600083815260200190815260200160002060009054906101000a900473ffffffffffffffffffffffffffffffffffffffff169050919050565b60006106f4826111b4565b90508073ffffffffffffffffffffffffffffffffffffffff168373ffffffffffffffffffffffffffffffffffffffff161415610765576040517f08c379a000000000000000000000000000000000000000000000000000000000815260040161075c906137d9565b60405180910390fd5b8073ffffffffffffffffffffffffffffffffffffffff16610784611bf3565b73ffffffffffffffffffffffffffffffffffffffff1614806107b357506107b2816107ad611bf3565b611a89565b5b6107f2576040517f08c379a00000000000000000000000000000000000000000000000000000000081526004016107e990613699565b60405180910390fd5b6107fc8383611bfb565b505050565b6060600061080f6007611cb4565b9050600061081d6008611cb4565b6108276007611cb4565b6108319190613a1e565b90506000808267ffffffffffffffff811115610876577f4e487b7100000000000000000000000000000000000000000000000000000000600052604160045260246000fd5b6040519080825280602002602001820160405280156108af57816020015b61089c612ac2565b8152602001906001900390816108945790505b50905060005b84811015610aab573073ffffffffffffffffffffffffffffffffffffffff16600b60006001846108e59190613997565b815260200190815260200160002060020160009054906101000a900473ffffffffffffffffffffffffffffffffffffffff1673ffffffffffffffffffffffffffffffffffffffff161415610a985760006001826109429190613997565b90506000600b60008381526020019081526020016000209050806040518060a0016040529081600082015481526020016001820160009054906101000a900473ffffffffffffffffffffffffffffffffffffffff1673ffffffffffffffffffffffffffffffffffffffff1673ffffffffffffffffffffffffffffffffffffffff1681526020016002820160009054906101000a900473ffffffffffffffffffffffffffffffffffffffff1673ffffffffffffffffffffffffffffffffffffffff1673ffffffffffffffffffffffffffffffffffffffff168152602001600382015481526020016004820160009054906101000a900460ff161515151581525050848681518110610a7b577f4e487b7100000000000000000000000000000000000000000000000000000000600052603260045260246000fd5b6020026020010181905250600185610a939190613997565b945050505b8080610aa390613b7d565b9150506108b5565b508094505050505090565b6000600954905090565b60606000610ace6007611cb4565b905060008060005b83811015610b77573373ffffffffffffffffffffffffffffffffffffffff16600b6000600184610b069190613997565b815260200190815260200160002060020160009054906101000a900473ffffffffffffffffffffffffffffffffffffffff1673ffffffffffffffffffffffffffffffffffffffff161415610b6457600183610b619190613997565b92505b8080610b6f90613b7d565b915050610ad6565b5060008267ffffffffffffffff811115610bba577f4e487b7100000000000000000000000000000000000000000000000000000000600052604160045260246000fd5b604051908082528060200260200182016040528015610bf357816020015b610be0612ac2565b815260200190600190039081610bd85790505b50905060005b84811015610def573373ffffffffffffffffffffffffffffffffffffffff16600b6000600184610c299190613997565b815260200190815260200160002060020160009054906101000a900473ffffffffffffffffffffffffffffffffffffffff1673ffffffffffffffffffffffffffffffffffffffff161415610ddc576000600182610c869190613997565b90506000600b60008381526020019081526020016000209050806040518060a0016040529081600082015481526020016001820160009054906101000a900473ffffffffffffffffffffffffffffffffffffffff1673ffffffffffffffffffffffffffffffffffffffff1673ffffffffffffffffffffffffffffffffffffffff1681526020016002820160009054906101000a900473ffffffffffffffffffffffffffffffffffffffff1673ffffffffffffffffffffffffffffffffffffffff1673ffffffffffffffffffffffffffffffffffffffff168152602001600382015481526020016004820160009054906101000a900460ff161515151581525050848681518110610dbf577f4e487b7100000000000000000000000000000000000000000000000000000000600052603260045260246000fd5b6020026020010181905250600185610dd79190613997565b945050505b8080610de790613b7d565b915050610bf9565b508094505050505090565b610e0b610e05611bf3565b82611cc2565b610e4a576040517f08c379a0000000000000000000000000000000000000000000000000000000008152600401610e4190613819565b60405180910390fd5b610e55838383611da0565b505050565b610e75838383604051806020016040528060008152506114a2565b505050565b60606000610e886007611cb4565b905060008060005b83811015610f31573373ffffffffffffffffffffffffffffffffffffffff16600b6000600184610ec09190613997565b815260200190815260200160002060010160009054906101000a900473ffffffffffffffffffffffffffffffffffffffff1673ffffffffffffffffffffffffffffffffffffffff161415610f1e57600183610f1b9190613997565b92505b8080610f2990613b7d565b915050610e90565b5060008267ffffffffffffffff811115610f74577f4e487b7100000000000000000000000000000000000000000000000000000000600052604160045260246000fd5b604051908082528060200260200182016040528015610fad57816020015b610f9a612ac2565b815260200190600190039081610f925790505b50905060005b848110156111a9573373ffffffffffffffffffffffffffffffffffffffff16600b6000600184610fe39190613997565b815260200190815260200160002060010160009054906101000a900473ffffffffffffffffffffffffffffffffffffffff1673ffffffffffffffffffffffffffffffffffffffff1614156111965760006001826110409190613997565b90506000600b60008381526020019081526020016000209050806040518060a0016040529081600082015481526020016001820160009054906101000a900473ffffffffffffffffffffffffffffffffffffffff1673ffffffffffffffffffffffffffffffffffffffff1673ffffffffffffffffffffffffffffffffffffffff1681526020016002820160009054906101000a900473ffffffffffffffffffffffffffffffffffffffff1673ffffffffffffffffffffffffffffffffffffffff1673ffffffffffffffffffffffffffffffffffffffff168152602001600382015481526020016004820160009054906101000a900460ff161515151581525050848681518110611179577f4e487b7100000000000000000000000000000000000000000000000000000000600052603260045260246000fd5b60200260200101819052506001856111919190613997565b945050505b80806111a190613b7d565b915050610fb3565b508094505050505090565b6000806002600084815260200190815260200160002060009054906101000a900473ffffffffffffffffffffffffffffffffffffffff169050600073ffffffffffffffffffffffffffffffffffffffff168173ffffffffffffffffffffffffffffffffffffffff16141561125d576040517f08c379a0000000000000000000000000000000000000000000000000000000008152600401611254906136d9565b60405180910390fd5b80915050919050565b60008073ffffffffffffffffffffffffffffffffffffffff168273ffffffffffffffffffffffffffffffffffffffff1614156112d7576040517f08c379a00000000000000000000000000000000000000000000000000000000081526004016112ce906136b9565b60405180910390fd5b600360008373ffffffffffffffffffffffffffffffffffffffff1673ffffffffffffffffffffffffffffffffffffffff168152602001908152602001600020549050919050565b600061132a6007612007565b60006113366007611cb4565b9050611342338261201d565b61134c81856121f7565b611356818461226b565b8091505092915050565b60606001805461136f90613b1a565b80601f016020809104026020016040519081016040528092919081815260200182805461139b90613b1a565b80156113e85780601f106113bd576101008083540402835291602001916113e8565b820191906000526020600020905b8154815290600101906020018083116113cb57829003601f168201915b5050505050905090565b6114046113fd611bf3565b838361246e565b5050565b3373ffffffffffffffffffffffffffffffffffffffff16600a60009054906101000a900473ffffffffffffffffffffffffffffffffffffffff1673ffffffffffffffffffffffffffffffffffffffff1614611498576040517f08c379a000000000000000000000000000000000000000000000000000000000815260040161148f90613839565b60405180910390fd5b8060098190555050565b6114b36114ad611bf3565b83611cc2565b6114f2576040517f08c379a00000000000000000000000000000000000000000000000000000000081526004016114e990613819565b60405180910390fd5b6114fe848484846125db565b50505050565b6000600b60008381526020019081526020016000206003015490506000600b600084815260200190815260200160002060010160009054906101000a900473ffffffffffffffffffffffffffffffffffffffff16905081341461159c576040517f08c379a000000000000000000000000000000000000000000000000000000000815260040161159390613719565b60405180910390fd5b33600b600085815260200190815260200160002060020160006101000a81548173ffffffffffffffffffffffffffffffffffffffff021916908373ffffffffffffffffffffffffffffffffffffffff1602179055506001600b600085815260200190815260200160002060040160006101000a81548160ff0219169083151502179055506000600b600085815260200190815260200160002060010160006101000a81548173ffffffffffffffffffffffffffffffffffffffff021916908373ffffffffffffffffffffffffffffffffffffffff1602179055506116806008612007565b61168b303385611da0565b600a60009054906101000a900473ffffffffffffffffffffffffffffffffffffffff1673ffffffffffffffffffffffffffffffffffffffff166108fc6009549081150290604051600060405180830381858888f193505050501580156116f5573d6000803e3d6000fd5b508073ffffffffffffffffffffffffffffffffffffffff166108fc349081150290604051600060405180830381858888f1935050505015801561173c573d6000803e3d6000fd5b50505050565b606061174d82611b87565b61178c576040517f08c379a000000000000000000000000000000000000000000000000000000000815260040161178390613759565b60405180910390fd5b60006006600084815260200190815260200160002080546117ac90613b1a565b80601f01602080910402602001604051908101604052809291908181526020018280546117d890613b1a565b80156118255780601f106117fa57610100808354040283529160200191611825565b820191906000526020600020905b81548152906001019060200180831161180857829003601f168201915b505050505090506000611836612637565b905060008151141561184c57819250505061188f565b60008251111561188157808260405160200161186992919061348a565b6040516020818303038152906040529250505061188f565b61188a8461264e565b925050505b919050565b3373ffffffffffffffffffffffffffffffffffffffff16600b600084815260200190815260200160002060020160009054906101000a900473ffffffffffffffffffffffffffffffffffffffff1673ffffffffffffffffffffffffffffffffffffffff1614611938576040517f08c379a000000000000000000000000000000000000000000000000000000000815260040161192f90613779565b60405180910390fd5b600954341461197c576040517f08c379a0000000000000000000000000000000000000000000000000000000008152600401611973906137f9565b60405180910390fd5b6000600b600084815260200190815260200160002060040160006101000a81548160ff02191690831515021790555080600b60008481526020019081526020016000206003018190555033600b600084815260200190815260200160002060010160006101000a81548173ffffffffffffffffffffffffffffffffffffffff021916908373ffffffffffffffffffffffffffffffffffffffff16021790555030600b600084815260200190815260200160002060020160006101000a81548173ffffffffffffffffffffffffffffffffffffffff021916908373ffffffffffffffffffffffffffffffffffffffff160217905550611a7a60086126f5565b611a85333084611da0565b5050565b6000600560008473ffffffffffffffffffffffffffffffffffffffff1673ffffffffffffffffffffffffffffffffffffffff16815260200190815260200160002060008373ffffffffffffffffffffffffffffffffffffffff1673ffffffffffffffffffffffffffffffffffffffff16815260200190815260200160002060009054906101000a900460ff16905092915050565b60007f01ffc9a7000000000000000000000000000000000000000000000000000000007bffffffffffffffffffffffffffffffffffffffffffffffffffffffff1916827bffffffffffffffffffffffffffffffffffffffffffffffffffffffff1916149050919050565b60008073ffffffffffffffffffffffffffffffffffffffff166002600084815260200190815260200160002060009054906101000a900473ffffffffffffffffffffffffffffffffffffffff1673ffffffffffffffffffffffffffffffffffffffff1614159050919050565b600033905090565b816004600083815260200190815260200160002060006101000a81548173ffffffffffffffffffffffffffffffffffffffff021916908373ffffffffffffffffffffffffffffffffffffffff160217905550808273ffffffffffffffffffffffffffffffffffffffff16611c6e836111b4565b73ffffffffffffffffffffffffffffffffffffffff167f8c5be1e5ebec7d5bd14f71427d1e84f3dd0314c0f7b2291e5b200ac8c7c3b92560405160405180910390a45050565b600081600001549050919050565b6000611ccd82611b87565b611d0c576040517f08c379a0000000000000000000000000000000000000000000000000000000008152600401611d0390613679565b60405180910390fd5b6000611d17836111b4565b90508073ffffffffffffffffffffffffffffffffffffffff168473ffffffffffffffffffffffffffffffffffffffff161480611d8657508373ffffffffffffffffffffffffffffffffffffffff16611d6e84610664565b73ffffffffffffffffffffffffffffffffffffffff16145b80611d975750611d968185611a89565b5b91505092915050565b8273ffffffffffffffffffffffffffffffffffffffff16611dc0826111b4565b73ffffffffffffffffffffffffffffffffffffffff1614611e16576040517f08c379a0000000000000000000000000000000000000000000000000000000008152600401611e0d906135f9565b60405180910390fd5b600073ffffffffffffffffffffffffffffffffffffffff168273ffffffffffffffffffffffffffffffffffffffff161415611e86576040517f08c379a0000000000000000000000000000000000000000000000000000000008152600401611e7d90613639565b60405180910390fd5b611e91838383612751565b611e9c600082611bfb565b6001600360008573ffffffffffffffffffffffffffffffffffffffff1673ffffffffffffffffffffffffffffffffffffffff1681526020019081526020016000206000828254611eec9190613a1e565b925050819055506001600360008473ffffffffffffffffffffffffffffffffffffffff1673ffffffffffffffffffffffffffffffffffffffff1681526020019081526020016000206000828254611f439190613997565b92505081905550816002600083815260200190815260200160002060006101000a81548173ffffffffffffffffffffffffffffffffffffffff021916908373ffffffffffffffffffffffffffffffffffffffff160217905550808273ffffffffffffffffffffffffffffffffffffffff168473ffffffffffffffffffffffffffffffffffffffff167fddf252ad1be2c89b69c2b068fc378daa952ba7f163c4a11628f55a4df523b3ef60405160405180910390a4612002838383612756565b505050565b6001816000016000828254019250508190555050565b600073ffffffffffffffffffffffffffffffffffffffff168273ffffffffffffffffffffffffffffffffffffffff16141561208d576040517f08c379a000000000000000000000000000000000000000000000000000000000815260040161208490613739565b60405180910390fd5b61209681611b87565b156120d6576040517f08c379a00000000000000000000000000000000000000000000000000000000081526004016120cd90613619565b60405180910390fd5b6120e260008383612751565b6001600360008473ffffffffffffffffffffffffffffffffffffffff1673ffffffffffffffffffffffffffffffffffffffff16815260200190815260200160002060008282546121329190613997565b92505081905550816002600083815260200190815260200160002060006101000a81548173ffffffffffffffffffffffffffffffffffffffff021916908373ffffffffffffffffffffffffffffffffffffffff160217905550808273ffffffffffffffffffffffffffffffffffffffff16600073ffffffffffffffffffffffffffffffffffffffff167fddf252ad1be2c89b69c2b068fc378daa952ba7f163c4a11628f55a4df523b3ef60405160405180910390a46121f360008383612756565b5050565b61220082611b87565b61223f576040517f08c379a0000000000000000000000000000000000000000000000000000000008152600401612236906136f9565b60405180910390fd5b80600660008481526020019081526020016000209080519060200190612266929190612b1f565b505050565b600081116122ae576040517f08c379a00000000000000000000000000000000000000000000000000000000081526004016122a590613859565b60405180910390fd5b60095434146122f2576040517f08c379a00000000000000000000000000000000000000000000000000000000081526004016122e9906137f9565b60405180910390fd5b6040518060a001604052808381526020013373ffffffffffffffffffffffffffffffffffffffff1681526020013073ffffffffffffffffffffffffffffffffffffffff16815260200182815260200160001515815250600b60008481526020019081526020016000206000820151816000015560208201518160010160006101000a81548173ffffffffffffffffffffffffffffffffffffffff021916908373ffffffffffffffffffffffffffffffffffffffff16021790555060408201518160020160006101000a81548173ffffffffffffffffffffffffffffffffffffffff021916908373ffffffffffffffffffffffffffffffffffffffff1602179055506060820151816003015560808201518160040160006101000a81548160ff02191690831515021790555090505061242b333084611da0565b817fb640004f1d14576d0c209e240cad0410e0d8c0c33a09375861fbadae2588a98d333084600060405161246294939291906134c9565b60405180910390a25050565b8173ffffffffffffffffffffffffffffffffffffffff168373ffffffffffffffffffffffffffffffffffffffff1614156124dd576040517f08c379a00000000000000000000000000000000000000000000000000000000081526004016124d490613659565b60405180910390fd5b80600560008573ffffffffffffffffffffffffffffffffffffffff1673ffffffffffffffffffffffffffffffffffffffff16815260200190815260200160002060008473ffffffffffffffffffffffffffffffffffffffff1673ffffffffffffffffffffffffffffffffffffffff16815260200190815260200160002060006101000a81548160ff0219169083151502179055508173ffffffffffffffffffffffffffffffffffffffff168373ffffffffffffffffffffffffffffffffffffffff167f17307eab39ab6107e8899845ad3d59bd9653f200f220920489ca2b5937696c31836040516125ce919061357c565b60405180910390a3505050565b6125e6848484611da0565b6125f28484848461275b565b612631576040517f08c379a0000000000000000000000000000000000000000000000000000000008152600401612628906135d9565b60405180910390fd5b50505050565b606060405180602001604052806000815250905090565b606061265982611b87565b612698576040517f08c379a000000000000000000000000000000000000000000000000000000000815260040161268f906137b9565b60405180910390fd5b60006126a2612637565b905060008151116126c257604051806020016040528060008152506126ed565b806126cc846128f2565b6040516020016126dd92919061348a565b6040516020818303038152906040525b915050919050565b60008160000154905060008111612741576040517f08c379a0000000000000000000000000000000000000000000000000000000008152600401612738906135b9565b60405180910390fd5b6001810382600001819055505050565b505050565b505050565b600061277c8473ffffffffffffffffffffffffffffffffffffffff16612a9f565b156128e5578373ffffffffffffffffffffffffffffffffffffffff1663150b7a026127a5611bf3565b8786866040518563ffffffff1660e01b81526004016127c7949392919061350e565b602060405180830381600087803b1580156127e157600080fd5b505af192505050801561281257506040513d601f19601f8201168201806040525081019061280f9190612ecb565b60015b612895573d8060008114612842576040519150601f19603f3d011682016040523d82523d6000602084013e612847565b606091505b5060008151141561288d576040517f08c379a0000000000000000000000000000000000000000000000000000000008152600401612884906135d9565b60405180910390fd5b805181602001fd5b63150b7a0260e01b7bffffffffffffffffffffffffffffffffffffffffffffffffffffffff1916817bffffffffffffffffffffffffffffffffffffffffffffffffffffffff1916149150506128ea565b600190505b949350505050565b6060600082141561293a576040518060400160405280600181526020017f30000000000000000000000000000000000000000000000000000000000000008152509050612a9a565b600082905060005b6000821461296c57808061295590613b7d565b915050600a8261296591906139ed565b9150612942565b60008167ffffffffffffffff8111156129ae577f4e487b7100000000000000000000000000000000000000000000000000000000600052604160045260246000fd5b6040519080825280601f01601f1916602001820160405280156129e05781602001600182028036833780820191505090505b5090505b60008514612a93576001826129f99190613a1e565b9150600a85612a089190613bc6565b6030612a149190613997565b60f81b818381518110612a50577f4e487b7100000000000000000000000000000000000000000000000000000000600052603260045260246000fd5b60200101907effffffffffffffffffffffffffffffffffffffffffffffffffffffffffffff1916908160001a905350600a85612a8c91906139ed565b94506129e4565b8093505050505b919050565b6000808273ffffffffffffffffffffffffffffffffffffffff163b119050919050565b6040518060a0016040528060008152602001600073ffffffffffffffffffffffffffffffffffffffff168152602001600073ffffffffffffffffffffffffffffffffffffffff168152602001600081526020016000151581525090565b828054612b2b90613b1a565b90600052602060002090601f016020900481019282612b4d5760008555612b94565b82601f10612b6657805160ff1916838001178555612b94565b82800160010185558215612b94579182015b82811115612b93578251825591602001919060010190612b78565b5b509050612ba19190612ba5565b5090565b5b80821115612bbe576000816000905550600101612ba6565b5090565b6000612bd5612bd0846138b9565b613894565b905082815260208101848484011115612bed57600080fd5b612bf8848285613ad8565b509392505050565b6000612c13612c0e846138ea565b613894565b905082815260208101848484011115612c2b57600080fd5b612c36848285613ad8565b509392505050565b600081359050612c4d816142d0565b92915050565b600081359050612c62816142e7565b92915050565b600081359050612c77816142fe565b92915050565b600081519050612c8c816142fe565b92915050565b600082601f830112612ca357600080fd5b8135612cb3848260208601612bc2565b91505092915050565b600082601f830112612ccd57600080fd5b8135612cdd848260208601612c00565b91505092915050565b600081359050612cf581614315565b92915050565b600060208284031215612d0d57600080fd5b6000612d1b84828501612c3e565b91505092915050565b60008060408385031215612d3757600080fd5b6000612d4585828601612c3e565b9250506020612d5685828601612c3e565b9150509250929050565b600080600060608486031215612d7557600080fd5b6000612d8386828701612c3e565b9350506020612d9486828701612c3e565b9250506040612da586828701612ce6565b9150509250925092565b60008060008060808587031215612dc557600080fd5b6000612dd387828801612c3e565b9450506020612de487828801612c3e565b9350506040612df587828801612ce6565b925050606085013567ffffffffffffffff811115612e1257600080fd5b612e1e87828801612c92565b91505092959194509250565b60008060408385031215612e3d57600080fd5b6000612e4b85828601612c3e565b9250506020612e5c85828601612c53565b9150509250929050565b60008060408385031215612e7957600080fd5b6000612e8785828601612c3e565b9250506020612e9885828601612ce6565b9150509250929050565b600060208284031215612eb457600080fd5b6000612ec284828501612c68565b91505092915050565b600060208284031215612edd57600080fd5b6000612eeb84828501612c7d565b91505092915050565b60008060408385031215612f0757600080fd5b600083013567ffffffffffffffff811115612f2157600080fd5b612f2d85828601612cbc565b9250506020612f3e85828601612ce6565b9150509250929050565b600060208284031215612f5a57600080fd5b6000612f6884828501612ce6565b91505092915050565b60008060408385031215612f8457600080fd5b6000612f9285828601612ce6565b9250506020612fa385828601612ce6565b9150509250929050565b6000612fb98383613404565b60a08301905092915050565b612fce81613a64565b82525050565b612fdd81613a52565b82525050565b6000612fee8261392b565b612ff88185613959565b93506130038361391b565b8060005b8381101561303457815161301b8882612fad565b97506130268361394c565b925050600181019050613007565b5085935050505092915050565b61304a81613a76565b82525050565b61305981613a76565b82525050565b600061306a82613936565b613074818561396a565b9350613084818560208601613ae7565b61308d81613cb3565b840191505092915050565b60006130a382613941565b6130ad818561397b565b93506130bd818560208601613ae7565b6130c681613cb3565b840191505092915050565b60006130dc82613941565b6130e6818561398c565b93506130f6818560208601613ae7565b80840191505092915050565b600061310f601b8361397b565b915061311a82613cc4565b602082019050919050565b600061313260328361397b565b915061313d82613ced565b604082019050919050565b600061315560258361397b565b915061316082613d3c565b604082019050919050565b6000613178601c8361397b565b915061318382613d8b565b602082019050919050565b600061319b60248361397b565b91506131a682613db4565b604082019050919050565b60006131be60198361397b565b91506131c982613e03565b602082019050919050565b60006131e1602c8361397b565b91506131ec82613e2c565b604082019050919050565b600061320460388361397b565b915061320f82613e7b565b604082019050919050565b6000613227602a8361397b565b915061323282613eca565b604082019050919050565b600061324a60298361397b565b915061325582613f19565b604082019050919050565b600061326d602e8361397b565b915061327882613f68565b604082019050919050565b600061329060408361397b565b915061329b82613fb7565b604082019050919050565b60006132b360208361397b565b91506132be82614006565b602082019050919050565b60006132d660318361397b565b91506132e18261402f565b604082019050919050565b60006132f9602a8361397b565b91506133048261407e565b604082019050919050565b600061331c602c8361397b565b9150613327826140cd565b604082019050919050565b600061333f602f8361397b565b915061334a8261411c565b604082019050919050565b600061336260218361397b565b915061336d8261416b565b604082019050919050565b600061338560248361397b565b9150613390826141ba565b604082019050919050565b60006133a860318361397b565b91506133b382614209565b604082019050919050565b60006133cb60308361397b565b91506133d682614258565b604082019050919050565b60006133ee601c8361397b565b91506133f9826142a7565b602082019050919050565b60a08201600082015161341a600085018261346c565b50602082015161342d6020850182612fc5565b5060408201516134406040850182612fc5565b506060820151613453606085018261346c565b5060808201516134666080850182613041565b50505050565b61347581613ace565b82525050565b61348481613ace565b82525050565b600061349682856130d1565b91506134a282846130d1565b91508190509392505050565b60006020820190506134c36000830184612fd4565b92915050565b60006080820190506134de6000830187612fd4565b6134eb6020830186612fd4565b6134f8604083018561347b565b6135056060830184613050565b95945050505050565b60006080820190506135236000830187612fd4565b6135306020830186612fd4565b61353d604083018561347b565b818103606083015261354f818461305f565b905095945050505050565b600060208201905081810360008301526135748184612fe3565b905092915050565b60006020820190506135916000830184613050565b92915050565b600060208201905081810360008301526135b18184613098565b905092915050565b600060208201905081810360008301526135d281613102565b9050919050565b600060208201905081810360008301526135f281613125565b9050919050565b6000602082019050818103600083015261361281613148565b9050919050565b600060208201905081810360008301526136328161316b565b9050919050565b600060208201905081810360008301526136528161318e565b9050919050565b60006020820190508181036000830152613672816131b1565b9050919050565b60006020820190508181036000830152613692816131d4565b9050919050565b600060208201905081810360008301526136b2816131f7565b9050919050565b600060208201905081810360008301526136d28161321a565b9050919050565b600060208201905081810360008301526136f28161323d565b9050919050565b6000602082019050818103600083015261371281613260565b9050919050565b6000602082019050818103600083015261373281613283565b9050919050565b60006020820190508181036000830152613752816132a6565b9050919050565b60006020820190508181036000830152613772816132c9565b9050919050565b60006020820190508181036000830152613792816132ec565b9050919050565b600060208201905081810360008301526137b28161330f565b9050919050565b600060208201905081810360008301526137d281613332565b9050919050565b600060208201905081810360008301526137f281613355565b9050919050565b6000602082019050818103600083015261381281613378565b9050919050565b600060208201905081810360008301526138328161339b565b9050919050565b60006020820190508181036000830152613852816133be565b9050919050565b60006020820190508181036000830152613872816133e1565b9050919050565b600060208201905061388e600083018461347b565b92915050565b600061389e6138af565b90506138aa8282613b4c565b919050565b6000604051905090565b600067ffffffffffffffff8211156138d4576138d3613c84565b5b6138dd82613cb3565b9050602081019050919050565b600067ffffffffffffffff82111561390557613904613c84565b5b61390e82613cb3565b9050602081019050919050565b6000819050602082019050919050565b600081519050919050565b600081519050919050565b600081519050919050565b6000602082019050919050565b600082825260208201905092915050565b600082825260208201905092915050565b600082825260208201905092915050565b600081905092915050565b60006139a282613ace565b91506139ad83613ace565b9250827fffffffffffffffffffffffffffffffffffffffffffffffffffffffffffffffff038211156139e2576139e1613bf7565b5b828201905092915050565b60006139f882613ace565b9150613a0383613ace565b925082613a1357613a12613c26565b5b828204905092915050565b6000613a2982613ace565b9150613a3483613ace565b925082821015613a4757613a46613bf7565b5b828203905092915050565b6000613a5d82613aae565b9050919050565b6000613a6f82613aae565b9050919050565b60008115159050919050565b60007fffffffff0000000000000000000000000000000000000000000000000000000082169050919050565b600073ffffffffffffffffffffffffffffffffffffffff82169050919050565b6000819050919050565b82818337600083830152505050565b60005b83811015613b05578082015181840152602081019050613aea565b83811115613b14576000848401525b50505050565b60006002820490506001821680613b3257607f821691505b60208210811415613b4657613b45613c55565b5b50919050565b613b5582613cb3565b810181811067ffffffffffffffff82111715613b7457613b73613c84565b5b80604052505050565b6000613b8882613ace565b91507fffffffffffffffffffffffffffffffffffffffffffffffffffffffffffffffff821415613bbb57613bba613bf7565b5b600182019050919050565b6000613bd182613ace565b9150613bdc83613ace565b925082613bec57613beb613c26565b5b828206905092915050565b7f4e487b7100000000000000000000000000000000000000000000000000000000600052601160045260246000fd5b7f4e487b7100000000000000000000000000000000000000000000000000000000600052601260045260246000fd5b7f4e487b7100000000000000000000000000000000000000000000000000000000600052602260045260246000fd5b7f4e487b7100000000000000000000000000000000000000000000000000000000600052604160045260246000fd5b6000601f19601f8301169050919050565b7f436f756e7465723a2064656372656d656e74206f766572666c6f770000000000600082015250565b7f4552433732313a207472616e7366657220746f206e6f6e20455243373231526560008201527f63656976657220696d706c656d656e7465720000000000000000000000000000602082015250565b7f4552433732313a207472616e736665722066726f6d20696e636f72726563742060008201527f6f776e6572000000000000000000000000000000000000000000000000000000602082015250565b7f4552433732313a20746f6b656e20616c7265616479206d696e74656400000000600082015250565b7f4552433732313a207472616e7366657220746f20746865207a65726f2061646460008201527f7265737300000000000000000000000000000000000000000000000000000000602082015250565b7f4552433732313a20617070726f766520746f2063616c6c657200000000000000600082015250565b7f4552433732313a206f70657261746f7220717565727920666f72206e6f6e657860008201527f697374656e7420746f6b656e0000000000000000000000000000000000000000602082015250565b7f4552433732313a20617070726f76652063616c6c6572206973206e6f74206f7760008201527f6e6572206e6f7220617070726f76656420666f7220616c6c0000000000000000602082015250565b7f4552433732313a2062616c616e636520717565727920666f7220746865207a6560008201527f726f206164647265737300000000000000000000000000000000000000000000602082015250565b7f4552433732313a206f776e657220717565727920666f72206e6f6e657869737460008201527f656e7420746f6b656e0000000000000000000000000000000000000000000000602082015250565b7f45524337323155524953746f726167653a2055524920736574206f66206e6f6e60008201527f6578697374656e7420746f6b656e000000000000000000000000000000000000602082015250565b7f506c65617365207375626d6974207468652061736b696e67207072696365206960008201527f6e206f7264657220746f20636f6d706c65746520746865207075726368617365602082015250565b7f4552433732313a206d696e7420746f20746865207a65726f2061646472657373600082015250565b7f45524337323155524953746f726167653a2055524920717565727920666f722060008201527f6e6f6e6578697374656e7420746f6b656e000000000000000000000000000000602082015250565b7f4f6e6c79206974656d206f776e65722063616e20706572666f726d207468697360008201527f206f7065726174696f6e00000000000000000000000000000000000000000000602082015250565b7f4552433732313a20617070726f76656420717565727920666f72206e6f6e657860008201527f697374656e7420746f6b656e0000000000000000000000000000000000000000602082015250565b7f4552433732314d657461646174613a2055524920717565727920666f72206e6f60008201527f6e6578697374656e7420746f6b656e0000000000000000000000000000000000602082015250565b7f4552433732313a20617070726f76616c20746f2063757272656e74206f776e6560008201527f7200000000000000000000000000000000000000000000000000000000000000602082015250565b7f5072696365206d75737420626520657175616c20746f206c697374696e67207060008201527f7269636500000000000000000000000000000000000000000000000000000000602082015250565b7f4552433732313a207472616e736665722063616c6c6572206973206e6f74206f60008201527f776e6572206e6f7220617070726f766564000000000000000000000000000000602082015250565b7f4f6e6c79206d61726b6574706c616365206f776e65722063616e20757064617460008201527f65206c697374696e672070726963652e00000000000000000000000000000000602082015250565b7f5072696365206d757374206265206174206c6561737420312077656900000000600082015250565b6142d981613a52565b81146142e457600080fd5b50565b6142f081613a76565b81146142fb57600080fd5b50565b61430781613a82565b811461431257600080fd5b50565b61431e81613ace565b811461432957600080fd5b5056fea26469706673582212205057939d06cc71e66dd837be79d0822c2ae52dbe6f609170f007120839f873d264736f6c63430008010033",
  "immutableReferences": {},
  "source": "// SPDX-License-Identifier: MIT\npragma solidity ^0.8.1;\n\nimport \"@openzeppelin/contracts/utils/Counters.sol\";\nimport \"@openzeppelin/contracts/token/ERC721/extensions/ERC721URIStorage.sol\";\nimport \"@openzeppelin/contracts/token/ERC721/ERC721.sol\";\n\n// import \"https://github.com/OpenZeppelin/openzeppelin-contracts/blob/74c9130a5916904ba397a903db446cd049a3d22d/contracts/utils/Counters.sol\";\n// import \"https://github.com/OpenZeppelin/openzeppelin-contracts/blob/74c9130a5916904ba397a903db446cd049a3d22d/contracts/token/ERC721/extensions/ERC721URIStorage.sol\";\n// import \"https://github.com/OpenZeppelin/openzeppelin-contracts/blob/74c9130a5916904ba397a903db446cd049a3d22d/contracts/token/ERC721/ERC721.sol\";\n//import \"hardhat/console.sol\";\n\ncontract NFTMarketplace is ERC721URIStorage {\n    using Counters for Counters.Counter;\n    Counters.Counter private _tokenIds;\n    Counters.Counter private _itemsSold;\n\n    uint256 listingPrice = 0.025 ether;\n    address payable owner;\n\n    mapping(uint256 => MarketItem) private idToMarketItem;\n\n    struct MarketItem {\n      uint256 tokenId;\n      address payable seller;\n      address payable owner;\n      uint256 price;\n      bool sold;\n    }\n\n    event MarketItemCreated (\n      uint256 indexed tokenId,\n      address seller,\n      address owner,\n      uint256 price,\n      bool sold\n    );\n\n    constructor() ERC721(\"Metaverse Tokens\", \"PR\") {\n      owner = payable(msg.sender);\n    }\n\n    /* Updates the listing price of the contract */\n    function updateListingPrice(uint _listingPrice) public payable {\n      require(owner == msg.sender, \"Only marketplace owner can update listing price.\");\n      listingPrice = _listingPrice;\n    }\n\n    /* Returns the listing price of the contract */\n    function getListingPrice() public view returns (uint256) {\n      return listingPrice;\n    }\n\n    /* Mints a token and lists it in the marketplace */\n    function createToken(string memory tokenURI, uint256 price) public payable returns (uint) {\n      _tokenIds.increment();\n      uint256 newTokenId = _tokenIds.current();\n\n      _mint(msg.sender, newTokenId);\n      _setTokenURI(newTokenId, tokenURI);\n      createMarketItem(newTokenId, price);\n      return newTokenId;\n    }\n\n    function createMarketItem(\n      uint256 tokenId,\n      uint256 price\n    ) private {\n      require(price > 0, \"Price must be at least 1 wei\");\n      require(msg.value == listingPrice, \"Price must be equal to listing price\");\n\n      idToMarketItem[tokenId] =  MarketItem(\n        tokenId,\n        payable(msg.sender),\n        payable(address(this)),\n        price,\n        false\n      );\n\n      _transfer(msg.sender, address(this), tokenId);\n      emit MarketItemCreated(\n        tokenId,\n        msg.sender,\n        address(this),\n        price,\n        false\n      );\n    }\n\n    /* allows someone to resell a token they have purchased */\n    function resellToken(uint256 tokenId, uint256 price) public payable {\n      require(idToMarketItem[tokenId].owner == msg.sender, \"Only item owner can perform this operation\");\n      require(msg.value == listingPrice, \"Price must be equal to listing price\");\n      idToMarketItem[tokenId].sold = false;\n      idToMarketItem[tokenId].price = price;\n      idToMarketItem[tokenId].seller = payable(msg.sender);\n      idToMarketItem[tokenId].owner = payable(address(this));\n      _itemsSold.decrement();\n\n      _transfer(msg.sender, address(this), tokenId);\n    }\n\n    /* Creates the sale of a marketplace item */\n    /* Transfers ownership of the item, as well as funds between parties */\n    function createMarketSale(\n      uint256 tokenId\n      ) public payable {\n      uint price = idToMarketItem[tokenId].price;\n      address seller = idToMarketItem[tokenId].seller;\n      require(msg.value == price, \"Please submit the asking price in order to complete the purchase\");\n      idToMarketItem[tokenId].owner = payable(msg.sender);\n      idToMarketItem[tokenId].sold = true;\n      idToMarketItem[tokenId].seller = payable(address(0));\n      _itemsSold.increment();\n      _transfer(address(this), msg.sender, tokenId);\n      payable(owner).transfer(listingPrice);\n      payable(seller).transfer(msg.value);\n    }\n\n    /* Returns all unsold market items */\n    function fetchMarketItems() public view returns (MarketItem[] memory) {\n      uint itemCount = _tokenIds.current();\n      uint unsoldItemCount = _tokenIds.current() - _itemsSold.current();\n      uint currentIndex = 0;\n\n      MarketItem[] memory items = new MarketItem[](unsoldItemCount);\n      for (uint i = 0; i < itemCount; i++) {\n        if (idToMarketItem[i + 1].owner == address(this)) {\n          uint currentId = i + 1;\n          MarketItem storage currentItem = idToMarketItem[currentId];\n          items[currentIndex] = currentItem;\n          currentIndex += 1;\n        }\n      }\n      return items;\n    }\n\n    /* Returns only items that a user has purchased */\n    function fetchMyNFTs() public view returns (MarketItem[] memory) {\n      uint totalItemCount = _tokenIds.current();\n      uint itemCount = 0;\n      uint currentIndex = 0;\n\n      for (uint i = 0; i < totalItemCount; i++) {\n        if (idToMarketItem[i + 1].owner == msg.sender) {\n          itemCount += 1;\n        }\n      }\n\n      MarketItem[] memory items = new MarketItem[](itemCount);\n      for (uint i = 0; i < totalItemCount; i++) {\n        if (idToMarketItem[i + 1].owner == msg.sender) {\n          uint currentId = i + 1;\n          MarketItem storage currentItem = idToMarketItem[currentId];\n          items[currentIndex] = currentItem;\n          currentIndex += 1;\n        }\n      }\n      return items;\n    }\n\n    /* Returns only items a user has listed */\n    function fetchItemsListed() public view returns (MarketItem[] memory) {\n      uint totalItemCount = _tokenIds.current();\n      uint itemCount = 0;\n      uint currentIndex = 0;\n\n      for (uint i = 0; i < totalItemCount; i++) {\n        if (idToMarketItem[i + 1].seller == msg.sender) {\n          itemCount += 1;\n        }\n      }\n\n      MarketItem[] memory items = new MarketItem[](itemCount);\n      for (uint i = 0; i < totalItemCount; i++) {\n        if (idToMarketItem[i + 1].seller == msg.sender) {\n          uint currentId = i + 1;\n          MarketItem storage currentItem = idToMarketItem[currentId];\n          items[currentIndex] = currentItem;\n          currentIndex += 1;\n        }\n      }\n      return items;\n    }\n}",
  "sourcePath": "C:\\Users\\Administrator\\Desktop\\nft-market\\contracts\\NFTMarketplace.sol",
  "compiler": {
    "name": "solc",
    "version": "0.8.1+commit.df193b15.Emscripten.clang"
  },
  "schemaVersion": "3.4.5",
  "updatedAt": "2022-03-25T12:48:14.761Z",
  "networkType": "ethereum",
  "devdoc": {
    "kind": "dev",
    "methods": {
      "approve(address,uint256)": {
        "details": "See {IERC721-approve}."
      },
      "balanceOf(address)": {
        "details": "See {IERC721-balanceOf}."
      },
      "getApproved(uint256)": {
        "details": "See {IERC721-getApproved}."
      },
      "isApprovedForAll(address,address)": {
        "details": "See {IERC721-isApprovedForAll}."
      },
      "name()": {
        "details": "See {IERC721Metadata-name}."
      },
      "ownerOf(uint256)": {
        "details": "See {IERC721-ownerOf}."
      },
      "safeTransferFrom(address,address,uint256)": {
        "details": "See {IERC721-safeTransferFrom}."
      },
      "safeTransferFrom(address,address,uint256,bytes)": {
        "details": "See {IERC721-safeTransferFrom}."
      },
      "setApprovalForAll(address,bool)": {
        "details": "See {IERC721-setApprovalForAll}."
      },
      "supportsInterface(bytes4)": {
        "details": "See {IERC165-supportsInterface}."
      },
      "symbol()": {
        "details": "See {IERC721Metadata-symbol}."
      },
      "tokenURI(uint256)": {
        "details": "See {IERC721Metadata-tokenURI}."
      },
      "transferFrom(address,address,uint256)": {
        "details": "See {IERC721-transferFrom}."
      }
    },
    "version": 1
  },
  "userdoc": {
    "kind": "user",
    "methods": {},
    "version": 1
  }
}